:020000040000fa
:080000000002040000000000f2
:020000040000fa
:040008009a05000055
:020000040000fa
:04000c0000050000eb
:020000040000fa
:0400100020050000c7
:020000040000fa
:04001400da05000009
:020000040000fa
:04001800ba05000025
:020000040000fa
:04001c009c0700003d
:020000040000fa
:040020004005000097
:020000040000fa
:040024009c07000035
:020000040000fa
:040028009c07000031
:020000040000fa
:04002c009c0700002d
:020000040000fa
:040030009c07000029
:020000040000fa
:040034009c07000025
:020000040000fa
:040038009c07000021
:020000040000fa
:04003c009c0700001d
:020000040000fa
:040040009c07000019
:020000040000fa
:040044009c07000015
:020000040000fa
:040048009c07000011
:020000040000fa
:04004c009c0700000d
:020000040000fa
:040050009c07000009
:020000040000fa
:040054006206000040
:020000040000fa
:04005800fc050000a3
:020000040000fa
:04005c009c070000fd
:020000040000fa
:040060009c070000f9
:020000040000fa
:040064009c070000f5
:020000040000fa
:040068009c070000f1
:020000040000fa
:04006c009c070000ed
:020000040000fa
:040070009c070000e9
:020000040000fa
:040074009c070000e5
:020000040000fa
:040078009c070000e1
:020000040000fa
:04007c009c070000dd
:020000040000fa
:040080009c070000d9
:020000040000fa
:040084009c070000d5
:020000040000fa
:040088009c070000d1
:020000040000fa
:04008c00fe0300006f
:020000040000fa
:040090009c070000c9
:020000040000fa
:040094009c070000c5
:020000040000fa
:040098009c070000c1
:020000040000fa
:04009c009c070000bd
:020000040000fa
:0400a0009c070000b9
:020000040000fa
:0400a40084070000cd
:020000040000fa
:0400a8009c070000b1
:020000040000fa
:0400ac009c070000ad
:020000040000fa
:0400b0009c070000a9
:020000040000fa
:0400b4009c070000a5
:020000040000fa
:0400b8009c070000a1
:020000040000fa
:0400bc009c0700009d
:020000040000fa
:0400c0009c07000099
:020000040000fa
:0400c4009c07000095
:020000040000fa
:0400c8009c07000091
:020000040000fa
:0400cc009c0700008d
:020000040000fa
:0400d0009c07000089
:020000040000fa
:0400d4009c07000085
:020000040000fa
:0400d8009c07000081
:020000040000fa
:0400dc00da04000042
:020000040000fa
:0400e0009c07000079
:020000040000fa
:0400e4009c07000075
:020000040000fa
:0400e8009c07000071
:020000040000fa
:0400ec00e606000024
:020000040000fa
:0400f0009c07000069
:020000040000fa
:0400f4009c07000065
:020000040000fa
:0400f8009c07000061
:020000040000fa
:0400fc009c0700005d
:020000040000fa
:040100009c07000058
:020000040000fa
:040104009c07000054
:020000040000fa
:040108009c07000050
:020000040000fa
:04010c009c0700004c
:020000040000fa
:040110009c07000048
:020000040000fa
:040114009c07000044
:020000040000fa
:040118009c07000040
:020000040000fa
:04011c009c0700003c
:020000040000fa
:040120009c07000038
:020000040000fa
:040124009c07000034
:020000040000fa
:040128009c07000030
:020000040000fa
:04012c009c0700002c
:020000040000fa
:040130009c07000028
:020000040000fa
:040134009c07000024
:020000040000fa
:040138009c07000020
:020000040000fa
:04013c009c0700001c
:020000040000fa
:040140009c07000018
:020000040000fa
:040144009c07000014
:020000040000fa
:040148009c07000010
:020000040000fa
:04014c009c0700000c
:020000040000fa
:040150009c07000008
:020000040000fa
:040154009c07000004
:020000040000fa
:040158009c07000000
:020000040000fa
:04015c009c070000fc
:020000040000fa
:040160009c070000f8
:020000040000fa
:040164009c070000f4
:020000040000fa
:040168009c070000f0
:020000040000fa
:04016c009c070000ec
:020000040000fa
:040170009c070000e8
:020000040000fa
:040174009c070000e4
:020000040000fa
:040178009c070000e0
:020000040000fa
:04017c009c070000dc
:020000040000fa
:040180009c070000d8
:020000040000fa
:040184009c070000d4
:020000040000fa
:040188009c070000d0
:020000040000fa
:04018c009c070000cc
:020000040000fa
:040190009c070000c8
:020000040000fa
:040194009c070000c4
:020000040000fa
:040198009c070000c0
:020000040000fa
:04019c009c070000bc
:020000040000fa
:0401a0009c070000b8
:020000040000fa
:0401a4009c070000b4
:020000040000fa
:0401a8009c070000b0
:020000040000fa
:0401ac009c070000ac
:020000040000fa
:0401b0009c070000a8
:020000040000fa
:0401b4009c070000a4
:020000040000fa
:0401b8009c070000a0
:020000040000fa
:0401bc009c0700009c
:020000040000fa
:0401c0009c07000098
:020000040000fa
:0401c4009c07000094
:020000040000fa
:0401c8009c07000090
:020000040000fa
:0401cc009c0700008c
:020000040000fa
:0401d0009c07000088
:020000040000fa
:0401d4009c07000084
:020000040000fa
:0401d8009c07000080
:020000040000fa
:0401dc009c0700007c
:020000040000fa
:0401e0009c07000078
:020000040000fa
:0401e4009c07000074
:020000040000fa
:0401e8009c07000070
:020000040000fa
:0401ec009c0700006c
:020000040000fa
:0401f0009c07000068
:020000040000fa
:0401f4009c07000064
:020000040000fa
:0401f8009c07000060
:020000040000fa
:0401fc009c0700005c
:020000040000fa
:040200009c07000057
:020000040000fa
:040204009c07000053
:020000040000fa
:040208009c0700004f
:020000040000fa
:04020c009c0700004b
:020000040000fa
:040210009c07000047
:020000040000fa
:040214009c07000043
:020000040000fa
:040218009c0700003f
:020000040000fa
:04021c009c0700003b
:020000040000fa
:040220009c07000037
:020000040000fa
:040224009c07000033
:020000040000fa
:040228009c0700002f
:020000040000fa
:04022c009c0700002b
:020000040000fa
:040230009c07000027
:020000040000fa
:040234009c07000023
:020000040000fa
:040238009c0700001f
:020000040000fa
:04023c009c0700001b
:020000040000fa
:040240009c07000017
:020000040000fa
:040244009c07000013
:020000040000fa
:040248009c0700000f
:020000040000fa
:04024c009c0700000b
:020000040000fa
:040250009c07000007
:020000040000fa
:040254009c07000003
:020000040000fa
:040258009c070000ff
:020000040000fa
:04025c009c070000fb
:020000040000fa
:040260009c070000f7
:020000040000fa
:040264009c070000f3
:020000040000fa
:040268009c070000ef
:020000040000fa
:04026c009c070000eb
:020000040000fa
:040270009c070000e7
:020000040000fa
:040274009c070000e3
:020000040000fa
:040278009c070000df
:020000040000fa
:04027c009c070000db
:020000040000fa
:040280009c070000d7
:020000040000fa
:040284009c070000d3
:020000040000fa
:040288009c070000cf
:020000040000fa
:04028c009c070000cb
:020000040000fa
:040290009c070000c7
:020000040000fa
:040294009c070000c3
:020000040000fa
:040298009c070000bf
:020000040000fa
:04029c009c070000bb
:020000040000fa
:0402a0009c070000b7
:020000040000fa
:0402a4009c070000b3
:020000040000fa
:0402a8009c070000af
:020000040000fa
:0402ac009c070000ab
:020000040000fa
:0402b0009c070000a7
:020000040000fa
:0402b4009c070000a3
:020000040000fa
:0402b8009c0700009f
:020000040000fa
:0402bc009c0700009b
:020000040000fa
:0402c0009c07000097
:020000040000fa
:0402c4009c07000093
:020000040000fa
:0402c8009c0700008f
:020000040000fa
:0402cc009c0700008b
:020000040000fa
:0402d0009c07000087
:020000040000fa
:0402d4009c07000083
:020000040000fa
:0402d8009c0700007f
:020000040000fa
:0402dc009c0700007b
:020000040000fa
:0402e0009c07000077
:020000040000fa
:0402e4009c07000073
:020000040000fa
:0402e8009c0700006f
:020000040000fa
:0402ec009c0700006b
:020000040000fa
:0402f0009c07000067
:020000040000fa
:0402f4009c07000063
:020000040000fa
:0402f8009c0700005f
:020000040000fa
:0402fc009c0700005b
:020000040000fa
:040300009c07000056
:020000040000fa
:040304009c07000052
:020000040000fa
:040308009c0700004e
:020000040000fa
:04030c009c0700004a
:020000040000fa
:040310009c07000046
:020000040000fa
:040314009c07000042
:020000040000fa
:040318009c0700003e
:020000040000fa
:04031c007a0700005c
:020000040000fa
:040320009c07000036
:020000040000fa
:040324009c07000032
:020000040000fa
:040328009c0700002e
:020000040000fa
:04032c009c0700002a
:020000040000fa
:040330009c07000026
:020000040000fa
:040334009c07000022
:020000040000fa
:100400008f4d21000eff26000e0188000000000025
:10041000000020000000e000020032000001200087
:100420002002880014000700eb0207000000e00033
:1004300003003a00e09d2200010020000200370086
:100440000000200001002000810f70000100320038
:100450000f000700000020000000e0000200320052
:1004600000000200000000006e27020000000000f3
:100470000040da000000fe00803020000000e000b4
:1004800002003200002020009001880000000600d9
:10049000a1028800800478000000eb001f003700f4
:1004a000e284440054a0b4009905ba00e2844400f8
:1004b00054a0b4009906ba00e284440054a0b400e9
:1004c0000006eb00476fde00fd07b200ae018800ba
:1004d000636ce10003003a000ad801000000eb0061
:1004e0000e003700606ce10008003a00004deb00a0
:1004f0000a05e800020039003420ec000af0a000f0
:100500008b05e900f9ff3e00040037006168e10057
:10051000010032000086eb000b00070019c7ba008b
:100520001905ba000e04e00003003a000a00e000da
:10053000dbff3a0000000600fe07b200ae028800b2
:100540008a047800f5ff37000cd0a300e20f4d00bd
:100550001c003b0089027800354dba000a05e8000e
:10056000020039003420ec000af0a0008b05e900fd
:100570000f003200254dba000a05e80002003900dc
:100580003420ec000af0a0008b05e90008003200de
:100590000c00e0000600320015cdba000a05e800a4
:1005a000020039003420ec000af0a0008b05e900bd
:1005b0008984e80054a0b4000b00e000e2ff3a0098
:1005c000000006009902ba00055d78008b05e9007d
:1005d000f7ff3200c82ade00055d78008b05e900d0
:1005e000f3ff32000c00e000f1ff320019ddba0029
:1005f000eeff37007c22040000000000942204007b
:1006000000000000ac22040000000000c42204002e
:1006100000000000dc22040000000000f4220400be
:10062000000000000c230400000000000a1e04006b
:10063000000000003a1e040000000000841e0400b8
:1006400000000000e21e0400000000005c22040024
:1006500000000000ac210400000000002a2004007b
:1006600000000000a620040000000000102204008a
:1006700000000000282204000000000040220400c6
:1006800000000000f01e040000000000961f04009f
:1006900000000000c421040000000000dc21040070
:1006a00000000000f421040000000000c420040049
:1006b000000000008e210400000000006a220400f7
:1006c0000000000082220400000000009a220400c2
:1006d00000000000b222040000000000ca22040052
:1006e00000000000e222040000000000fa220400e2
:1006f00000000000d829040000000000f0250400dc
:10070000000000000826040000000000202604006d
:1007100000000000382604000000000050260400fd
:1007200000000000682604000000000012230400fe
:100730000000000072230400000000009823040061
:1007400000000000c223040000000000ee230400ab
:10075000000000000424040000000000362404000f
:100760000000000066240400000000006e24040065
:100770000000000076240400000000009c24040017
:1007800000000000b424040000000000cc24040099
:1007900000000000e224040000000000fe24040029
:1007a000000000006025040000000000d0250400c7
:1007b00000000000de25040000000000f625040013
:1007c000000000000e2604000000000026260400a1
:1007d000000000003e260400000000005626040031
:1007e000000000009e120400000000004a0d0400fa
:1007f000000000003a090400000000003600f80084
:10080000809fbe00829fbe00849fbe00869fbe0068
:100810000800fa00e12e800000002800008060003f
:100820000000e00006003200c08080000000e00010
:1008300002003200c080800000000100dde5a90058
:10084000e12e800000002400008060000000e00035
:1008500006003200d08080000000e000020032007c
:10086000d080800000000100ddc5a900e12e8000dd
:1008700000002200008060000000e000060032005e
:10088000e08080000000e00002003200e080800094
:1008900000000100dda5a900e02e800068006000d6
:1008a0000000e00006003200f08080000000e00060
:1008b00002003200f080800000000100dc65a90029
:1008c000e12e800000002100008060000000e000b8
:1008d00006003200008180000000e00002003200cb
:1008e0000081800000000100dd85a900e12e80006c
:1008f00000402000008060000000e00005003200a1
:10090000108180000000e0000200320010818000b1
:1009100000000100e12e80000080200000806000c7
:100920000000e0000a003200208180000000e000aa
:1009300002003200208180000000010000318000b0
:10094000680060000000e000010032002066a9009d
:10095000e02e8000620060000000e0000d00320028
:1009600000318000610060000000e00008003200fb
:100970008e007800100020006c0d07000004e000dd
:1009800002003200e09c29002d0207002006a90089
:10099000dc25a9000328a9000080fa004f03be004f
:1009a0004f02be004f01be004f00be003600f900ee
:1009b000004006003600f800809fbe00829fbe0007
:1009c000849fbe00869fbe000000fa006081800008
:1009d0000000e000020032006081800000000100a1
:1009e00005a8a9000080fa004f03be004f02be0018
:1009f0004f01be004f00be003600f9000040060067
:100a00003600f800809fbe00829fbe00849fbe001b
:100a1000869fbe000000fa00c068a90020002000e8
:100a2000a31307000080fa004f03be004f02be0070
:100a30004f01be004f00be003600f9000040060026
:100a40003600f800809fbe00829fbe00849fbe00db
:100a5000869fbe000000fa00c608a90070002000b2
:100a6000931307000080fa004f03be004f02be0040
:100a70004f01be004f00be003600f90000400600e6
:100a80003600f800809fbe00829fbe00849fbe009b
:100a9000869fbe000000fa002046800070006000c3
:100aa0000000e00003003200c488a900a00020007c
:100ab0007f130700214680000002200000806000b4
:100ac0000000e00003003200c4a8a900900020004c
:100ad000771307002146800000102000008060008e
:100ae0000000e00003003200c508a900c00020009b
:100af0006f13070021468000002020000080600066
:100b00000000e00003003200c528a900d00020004a
:100b10006713070020468000610060000000e000cd
:100b200003003200c408a900b000200060130700d1
:100b3000ffff37003600f800809fbe00829fbe0096
:100b4000849fbe00869fbe000000fa00c028a90056
:100b50000000eb00561307000080fa004f03be00b0
:100b60004f02be004f01be004f00be003600f9002c
:100b7000004006003600f800809fbe00829fbe0045
:100b8000849fbe00869fbe000000fa00c088a900b6
:100b900030002000461307000080fa004f03be001b
:100ba0004f02be004f01be004f00be003600f900ec
:100bb000004006003600f800809fbe00829fbe0005
:100bc000849fbe00869fbe000000fa003f1307000e
:100bd000c048a90010002000351307000080fa006b
:100be0004f03be004f02be004f01be004f00be00cb
:100bf0003600f900004006003600f800809fbe0075
:100c0000829fbe00849fbe00869fbe000000fa0047
:100c10004180800030808000808f50001b003a00af
:100c2000708080000000e0000200320070808000d0
:100c3000000001002188a90010c0b30038f0b700ff
:100c40001900370040808000104078000080fb00d1
:100c500040128800408080000000e800408088004a
:100c600041808000504c2100808f500002003a00eb
:100c7000c04b21004080880041808000308080008f
:100c8000808f500007003200010037000000000094
:100c9000f0118000700060000000e000e9ff320009
:100ca00001003700000000000080fa004f03be0082
:100cb0004f02be004f01be004f00be003600f900db
:100cc000004006003600f800809fbe00829fbe00f4
:100cd000849fbe00869fbe000400fa000000eb0067
:100ce000000f78000000eb00100798000168a900d1
:100cf000260037001080800021128000814078009b
:100d00000148780080002000000f780011808000ea
:100d1000110798001e0090000000e80010079800de
:100d2000504c21009e00400010808000808f5000b9
:100d300008003200208080009e009000808f5000cc
:100d400004003200108080000000e800108088005d
:100d50000e003700504c21009e00400010808000a3
:100d6000808f500007003a0021808000504c210005
:100d7000808f500003003200504c2100108088000a
:100d80000200370010c0b3000af0b700f011800075
:100d9000620060000000e000d6ff3200608080004a
:100da0000000e000020032006080800000000100ce
:100db0000080fa004f03be004f02be004f01be008c
:100dc0004f00be003600f900004006003600f80073
:100dd000809fbe00829fbe00849fbe00869fbe0093
:100de0000000fa00e1118000000220000080600095
:100df0000000e00004003200008080000040a000fd
:100e0000008088003ca2a900e01180006100600021
:100e10000000e00009003200008080000030a000e7
:100e200000808800808080000000e0000200320026
:100e300080808000000001003c02a900e0118000d9
:100e4000620060000000e0000900320000808000c5
:100e50000020a00000808800a08080000000e0004a
:100e600002003200a0808000000001003c22a900a6
:100e7000e111800000042000008060000000e0001c
:100e800008003200008080000010a0000080880070
:100e9000b08080000000e00002003200b0808000de
:100ea00000000100e0118000680060000000e00028
:100eb00008003200008080000000a0000080880050
:100ec000908080000000e0000200320090808000ee
:100ed000000001000628a9000080fa004f03be00b0
:100ee0004f02be004f01be004f00be003600f900a9
:100ef000004006000000fa005cc2a90017a8a90083
:100f00000080fa0000400600801f78000000fa0010
:100f100010c0b3003af0b700dc25a90003e8a9002f
:100f2000de25a90023e8a9001c06a9000080fa001c
:100f30004f007800004006000040da000000fe008c
:100f40000a00fa0011002000b1bf9f00c0bf9f003f
:100f50006a805700720607004fb897000080fa00b9
:100f6000000006000800fa0010079800210798000a
:100f7000320798000000eb00000f7800000000002e
:100f80003a0e07000004a2000004e000fcff3a0053
:100f90000a003700000000001b0e07000004a2003a
:100fa0000004e000fcff3a002e0090001e0040000c
:100fb000104078001e0fe800f20d07003e00900080
:100fc0009e007800808f5000f2ff39001e007800ec
:100fd0000080fa0000000600000005006022b80052
:100fe000060220000000d0008180d2000482d200de
:100ff0008582d2000000a0000202520083825a00c3
:10100000030031000202420083824a000000a10076
:101010000603e900f3ff3a00000006000000fa00b2
:1010200068815700cfb89700e0a1800010007800d9
:10103000770207000080fa00000006009400070015
:10104000ed000700230107009f010700c70107000b
:10105000ee020700990237000000fa00688157008d
:10106000cfb89700e0a18000100078006802070068
:101070000080fa000000060085000700de0007007f
:1010800091010700b901070012010700df02070004
:101090008a0237008001780002003700b1597800d9
:1010a0000201e9000200e000fcff3a000000060037
:1010b000889fbe008a9fbe00800478000200e00086
:1010c0005b00320001407800814c7800828144004e
:1010d000f1f99f00e20f510055003600914498004d
:1010e000a1449800e1f99f00d1f99f00e60f51005b
:1010f0004f003600b1449800c1f99f00e80f51003d
:101100004b0036000905ea00630565000a844400c7
:101110000a055100c1ff2f00010565000080fb009a
:101120008000eb0012102000131020003206070090
:10113000008cbe000a01440060b99f0071b99f0095
:10114000e80f55003a00360020049800310498005a
:10115000400498005104980020b99f0031b99f00c5
:1011600040b99f0051b99f00f80f5500300036007c
:101170006004980071049800000c9800110c98000d
:10118000200c9800310c9800400c9800510c9800ed
:1011900020b19f0031b19f0040b19f0051b19f002d
:1011a00060b19f0071b19f0000b99f0011b99f000d
:1011b0006401640078014100020444000205550006
:1011c0006011b8000203be000002be000403be00ae
:1011d0006022b8000000720081807200020173007a
:1011e0008381730010003700009cbe000294be0093
:1011f0004004980051049800620498007304980019
:10120000000c9800110c9800220c9800330c9800e8
:10121000400c9800510c9800620c9800730c9800d8
:101220000a02b1000802b000ff0f5500eeff3e00b9
:10123000090078004f05be004f04be000000060004
:10124000e1a180009100780018050700110020003e
:101250000000e00005003500e0a18000900078006b
:10126000a00020005a050700cf00de000100ea00c0
:1012700000000600000006002044210000000600d7
:10128000fdff070000a28800f0a188000000060012
:10129000ec874700889fbe008a9fbe008c9fbe00df
:1012a0008e1f78000006780001047800180790006f
:1012b0002805900098067800cdb79f00b8059000eb
:1012c0003202be002203be000400be000601be00c2
:1012d0004f18de006011b8008000eb00d0b79f000f
:1012e000e1b79f00f2b79f0083bf9f0080047800a2
:1012f0000900e000060032006000b8006011b8008c
:101300000402500085825800060359008783590063
:101310000e00e000020035000d10a100cdb79f00c7
:101320000900e00005003a004fb097000028a30034
:1013300002003a000038a300020032008a00e900ef
:10134000010037008a007800f8815700a2002000d1
:1013500008007800890007000900e00003003a0057
:10136000cfb097000128a300080032000000e90078
:1013700000814500b1c2b3000900e0000100320065
:10138000d1c2b30001497800060037000138a3003c
:10139000040032000000e9008080450002c2b30072
:1013a00082487800480190000201e90000015100e4
:1013b000808045004fb297008a0178000c007800c9
:1013c0005d0207009c0090000188a3000400320029
:1013d00098009000810f500001003d00010078004e
:1013e0004f0778004f06be004f05be004f04be00f9
:1013f000cf00b100000006000200fa00889fbe0086
:101400008a9fbe0080057800010478000200780001
:10141000180190002805900098007800b1bf9f0047
:10142000b80490000200e000020035000110a100a5
:10143000b1bf9f00ea815700820020008a00780037
:101440003002be002003be00080078004b000700f9
:101450003fb99700f0006100040032000000e9008d
:101460008080440002c3b300824878003fb99700ef
:10147000e8006100040032000000e90080804400c0
:1014800002c2b30082487800480190000201e900de
:1014900000015100808044003fba97008a01780023
:1014a0000b007800240207009b0090000188a30035
:1014b0000400320098009000810f500001003d00b0
:1014c000010078004f05be004f04be000080fa0006
:1014d00000000600ea874700889fbe008a9fbe0082
:1014e0008e1f780000047800030078007287570090
:1014f00084e2260055c72600049fbe00c396220042
:10150000030f78006c875700004feb001105900027
:10151000a1049000910578000200e0000200320072
:101520000207780001003700728757000000e000d2
:1015300002003a000e007800a60407000a00e0004e
:10154000030035008a0f5000010036000a007800c1
:101550000b02780089017800000178008e00780085
:1015600008007800f40107004f0778004f05be001f
:101570004f04be00af00b10000000600f487470032
:10158000889fbe008a9fbe008c9fbe008e1f780081
:101590000605be000404be0081bf9f0082b79f0005
:1015a000f3b79f00b0009000e1b79f0013017800ef
:1015b00092b79f0090069000400090000000e90064
:1015c000000678000d00e00001003d001d00200035
:1015d000efb19700008041000048eb001e002000a2
:1015e0001f0037000c06e9000fb09700cf80de0027
:1015f0006109b900a0b79f00b1b79f00c2b79f00b3
:10160000d3b79f000203be000002be000800be0068
:101610000a01be009e05070000077800efb09700a2
:101620000c80400003c3b300034847008d06e90067
:101630000fb897000000e90080bf9f002fb297000d
:10164000bfb297004fb39700dfb397000800be000a
:101650000a01be00870507000205be000004be00a7
:101660000c00e0000d003400e00f5400e08f5c003f
:10167000e00f5d00e08f5d00daff3a000d00e00052
:10168000d8ff3c008fb897000100e0000300340051
:101690001fb197000218a300d2ff3a000e00e0002d
:1016a00002003a00ffb197001340a1000c0078003f
:1016b0004f0778004f06be004f05be004f04be0026
:1016c0004f01b100000006000200fa00889fbe0032
:1016d0008a9fbe00000578000104780002007800af
:1016e00018019000a804900098007800b1bf9f00f6
:1016f000b80590000200e000020035000110a100d2
:10170000b1bf9f00ea815700a20020008900780045
:101710003002be002003be000800780097ff0700db
:10172000480190000201e90000015100808045005d
:101730003fba9700890178000a0078007e0107000f
:101740009a0090000188a3000400320098009000e5
:10175000810f500001003d00010078004f05be00e0
:101760004f04be000080fa0000000600fa87470020
:10177000889fbe008a9fbe008c9fbe008e1f78008f
:101780008004780001047800820578001801900038
:101790002805900018077800b80090000200e000cb
:1017a000020035000e10a1000100370012002000d9
:1017b00070006700e0b79f00090032003b02be00e6
:1017c0002b03be00e00f5200e08f5a00e00f5b00d9
:1017d000e08f5b00020032008a86e90001003700da
:1017e0008a067800e8026700f5b79f000100320022
:1017f0008d06e9003b02be002b03be00e4af9f0054
:10180000f5af9f0086b79f0097b79f0048069000ee
:101810000c06e9000c8040000048eb00efb2970096
:101820007fb297008903780081047800d8af9f00c9
:10183000020478008bbf9f008a057800034578007a
:101840002b0037000c06e9006fab97006f006300b8
:10185000e90f500002003c000003b0000100370017
:101860007005b0000a03fb001604b100f90f530025
:101870000c003e00000378000650a0001606b100e0
:10188000f90f530007003e00b4b79f00a5b79f00b3
:10189000c7b79f00f8030700cfb39700afb2970018
:1018a0003fb297000c834400004b78000804e90025
:1018b0008d06e9006fa89700ffa897000fb1970069
:1018c0009fb19700460020008301d1000281d30020
:1018d0008180d3000080d3000603e900faff3a00bc
:1018e000e0af9f00f1af9f0082b79f0093b79f00ca
:1018f000e10f56000f0034006fa89700ffa8970073
:101900000fb197009fb19700e00f5000e08f580093
:10191000e00f5900e08f5900caff3a000800e000cc
:10192000c8ff3c000d00e000020034000e18a300c8
:10193000c4ff3a0089007800f4b79f00870478005c
:101940005fac97008a4178000b0578008fbd970047
:101950000500e000120032003b02be002b03be0077
:10196000e4af9f00f5af9f0086b79f0097b79f0039
:10197000e00f5200e08f5a00e00f5b00e08f5b0049
:10198000070032000c06e9000c8040000348780094
:101990000c06e9000c80400002c3b3000248780046
:1019a000ffb297000500e000040032000c06e900d9
:1019b0000c80400002c2b300024878004801900049
:1019c0000201e9000c0151008c8040000e027800f9
:1019d0008a01780009007800d7000700990090007c
:1019e0000188a3000400320098009000810f50008d
:1019f00001003d00010078004f0778004f06be004f
:101a00004f05be004f04be00af01b100000006004c
:101a10000200fa00881f780000047800e2bf9f00ef
:101a20006481570008007800850207009800900044
:101a30000148a300010032000080eb004f04780051
:101a40000080fa0000000600889fbe0000047800b5
:101a50004800900082047800808f54000100360016
:101a600080047800090178005800900089fd070083
:101a7000580090000900400050049800c8009000f1
:101a800089845000490498000048eb004f04be00d0
:101a9000000006001000780032fd37009001900031
:101aa0000388a30001003200e7ff37000348a300ca
:101ab00001003a00f7ff070000000600840820003c
:101ac000848f50001d0032000d003c0014082000df
:101ad000848f50002700320002003c0004082000e0
:101ae0000400370024082000848f500034003200a6
:101af00044082000848f500043003a00360037002d
:101b0000040a2000848f50002700320004003c00ab
:101b100004092000848f50003b003a002800370061
:101b2000020c2000828f50002f003200020f200094
:101b3000828f500034003a002b0037009380e90078
:101b40000200e00005003200810978001102fb006c
:101b5000cfa2de00612bb900280037008109780090
:101b6000114278000482fb008002eb006033b80071
:101b70002200370013027800e40052000200e00067
:101b800005003200810978001102be004fabde0073
:101b90008603780019003700810978001102be0021
:101ba0006033b800150037009380e90081097800a0
:101bb00011027800cfa2de00612bb9000f003700c0
:101bc00093027800e8805200810978003102be005b
:101bd0002103be00090037009380e9000200e00005
:101be00002003200f1ff37009380e900810978009c
:101bf000110278008002eb006033b8000498be0048
:101c00000690be00100005000000050044082000fa
:101c1000848f50002500320008003c00140820008a
:101c2000848f50001400320024082000848f50005c
:101c300024003200040820000c00370004092000b2
:101c4000848f50001f00320004003c0084082000f4
:101c5000848f500024003a000e003700040a200050
:101c6000848f500011003200040c2000848f50003b
:101c70001d003a000d0037009380e90081097800cb
:101c80009100780001087800cf91de008288be00c4
:101c9000140037009380e9008109780091007800f2
:101ca00001087800824878000e0037009380e90030
:101cb0008109780091007800010878008208780096
:101cc000080037009380e9008109780091007800ce
:101cd000010878006112b900612bb9008498be0038
:101ce0008690be001000050000000500889fbe0021
:101cf000000478004800900082047800808f54002f
:101d00000100360080047800090178005800900036
:101d1000e0fc0700580090000900400050049800c3
:101d2000c800900089845000490498000048eb00e6
:101d30004f04be0000000600f2874700889fbe00e7
:101d40008a9fbe008c9fbe008e1f780080047800a2
:101d500001057800020478008305780061076200bd
:101d600002003a008b0f5400080039000801780087
:101d70008a0078000900780048ff07008b0f5400a4
:101d800002003900880578001e00370008865500db
:101d90000c017800f00f560001003600020120000f
:101da000010220007e805700c1fc07008c067800ed
:101db0000500370002012000fe805700090078006e
:101dc00036ff0700f0865600ef8f5600f9ff3e0001
:101dd0004461de0000ff2f008091b9000c0141003a
:101de000fe805700090078002cff07000e00e0007d
:101df00004003a00080178008a00780009007800a1
:101e000026ff07000b0078004f0778004f06be0042
:101e10004f05be004f04be002f01b10000000600b8
:101e2000000005000000050000000500000178002a
:101e30000040eb008080fb0081804000634a21006d
:101e400081814100134278000404e00004003a005c
:101e5000704a210081004000114078000000060017
:101e600092017800934f520005003a00704a210019
:101e700081004000114078000309e80001003700ac
:101e80000040e800ea4f5000eaff3600000006007c
:101e9000f6874700889fbe008a9fbe008c9fbe00c9
:101ea0008e1f780000057800010478008305780013
:101eb000040678000000eb00c0b79f008080eb00b4
:101ec000d1b79f00e0b79f00f2b79f000008200045
:101ed00080bf9f0098007800010078008004eb002c
:101ee000010037008904e800304178000204e00076
:101ef0000300320053c2b300834f5100f9ff3a0090
:101f00000900e00004003200090178000a007800ae
:101f1000e2fe0700188c44001807780050c2b30096
:101f20009e4f10003f013a000e07e8000e0c7800ab
:101f300010003700cfb097000100a0000b00370061
:101f4000cfb097000110a00008003700cfb0970075
:101f50000120a00005003700cfb097000130a0009d
:101f600002003700cfb097000140a000c1b79f002a
:101f7000000ce8001800780090407800b2c2b3006e
:101f800082cf5000f1ff320007003c0002c2b300d4
:101f900082cf5000f0ff320032c2b30082cf500037
:101fa00007003a00efff3700d2c2b30082cf5000e3
:101fb000e0ff320002c3b30082cf5000e0ff3200e6
:101fc000a2c2b30082cf50000d003a00000ce8001e
:101fd0001c80e900000e780010007800e0b79f0038
:101fe0000000e0000f003d00cfb097000100a2000c
:101ff000c1b79f000000ea00e0b79f00090037006a
:1020000084010700e0b79f0001003700000ce800e2
:10201000180078009000fb000103b100e98f500028
:10202000faff36004fb097000008a300020032000c
:102030000010a100c0b79f0018007800e1c2b300f3
:1020400090cf100016003a008000eb00d1b79f003f
:102050000000e800000c7800a1c2b30090cf10008f
:1020600006003a00000ce8001c80e900000e780031
:1020700010007800d0b79f00090037006501070005
:10208000d0b79f0001003700000ce800180078006e
:102090009000fb000103b100e98f5000faff360009
:1020a0000800780061ff070080467800180078007b
:1020b0001000fb00e901070091062000810f50008d
:1020c0003800320012003c0041062000810f500011
:1020d000340032000a003c0011062000810f50003d
:1020e0002000320031062000810f5000a000320095
:1020f00051022000810f5000bc003a00b4003700ac
:1021000071062000810f5000b8003c0088003700a5
:1021100001072000810f50005c00320007003c00e6
:10212000e1062000810f50007a003200f106200005
:10213000810f5000ad003a003900370051072000f0
:10214000810f50002700320081072000810f5000ce
:102150004200320031072000810f5000a3003a00f6
:102160008f0037008d80fb000c01780000fe2f00ef
:102170000f004000cb0107000000e000a800320083
:1021800018007800000ce8009041780002fe2f0053
:102190000f014100f88057000a00780021ff070076
:1021a0000e0037008d80fb008c01780012002000ab
:1021b00000fe2f000f00400040fe07000000e0007e
:1021c00097003200180ce80002fe2f000f014100ba
:1021d000f88057000a0078002dfc07008084440036
:1021e000900037008d80fb008c0178000001eb002f
:1021f00000fe2f000f00400030fe07000000e0004e
:1022000087003200180ce80002fe2f000f01410089
:10221000f88057000a0078002bfd0700efff370019
:102220008d80fb008c0178000001eb0000fe2f0088
:102230000f00400021fe07000000e000780032009f
:10224000180ce80002fe2f000f014100f880570033
:102250000a00780068fc0700e0ff37008d80fb0073
:102260008c0178000001eb0000fe2f000f00400001
:1022700012fe07000000e00069003200180078003c
:10228000000ce800904178001c0037008c017800b9
:102290000001eb00010f200000fe2f000f004000a6
:1022a00006fe07000000e0005d003200180ce800a8
:1022b0000fb097009fb097002fb19700bfb1970064
:1022c000e00f5000e08f5800e00f5900e08f5900f8
:1022d00009003a00cfb597006fb49700e04921009c
:1022e0003c0107000b0278008801780000017800ab
:1022f000e14921004700370083c7b30002fe2f00e9
:102300000f014100f88057000a00780017fd070010
:10231000b2ff37000b8144008d80fb008c017800f8
:1023200000fe2f000f00400038fe07003c00370081
:102330008d80fb000c01780000fe2f000f00400094
:10234000580107000000e000350032001800780056
:10235000000ce8009041780002fe2f000f014100c0
:10236000f88057000a007800aefe07009bff370098
:1023700000c8b30080cf560029003a00180ce800ce
:102380001c80e900000e780010407800e0df9f001c
:1023900013002000e2fd2f000f014100080037006c
:1023a00000c8b30080cf56001d003a00180ce800aa
:1023b0001c80e900000e78008001eb00100178001d
:1023c000f88057000a00780042fc070083ff3700be
:1023d00000c8b30080cf560011003a00180ce80086
:1023e0004fb29700efb19700080037000e0c78004d
:1023f0000000eb00c0b79f00e0b79f000080eb003b
:10240000d0b79f000002eb0084017800120020008a
:10241000414a21000a00780047fe07006fff37009d
:10242000180ce800090078004f0778004f06be003e
:102430004f05be004f04be006f01b1000000060052
:102440008200fa00889fbe008a1f7800000578008d
:1024500082047800c13f9f000004eb0010003700a9
:102460000902780088017800a2f72f000f014100cf
:1024700081f72f008f8040000a00780084fe07005b
:1024800008004000880f500004003d00b004200008
:10249000b0a688000084eb00040037000004780038
:1024a0004f3897001004e000edff3a000800780074
:1024b0004f0578004f04be000080fa0000000600bf
:1024c000889fbe000004be000000eb000800e00092
:1024d00018003200180090000058a3000d003200d0
:1024e000d800900068009000808f500009003600ee
:1024f000b80990000001eb00820078000800780025
:1025000003000100d80090000080eb000100e00013
:10251000080032000000eb00200c980060049800d6
:10252000500498000900e000020032001800780012
:1025300083fa07004f04be0000000600889fbe001b
:102540000004be000000eb000800e000250032009f
:10255000180090000058a30011003200d80090002d
:1025600068009000808f500009003600b809900084
:102570000001eb00820078000800780003000100f1
:10258000d80090000080eb000100e0001500320050
:102590000000eb00200c98006004980050049800a4
:1025a000780a900008109000800f52000600310059
:1025b0000002520011002000cfa2de00612bb90002
:1025c00018007800650007000000eb000014980078
:1025d000700c98000900e00002003200180078003a
:1025e00057fa07004f04be00000006008000780084
:1025f0001000200002022000828f500004003200f0
:10260000e9805000e48f5000010036000000eb002c
:1026100000000600889fbe008a1f78000005780031
:102620000a047800984478000805e8000900fb00d7
:10263000eeff07000000e000f9ff3a00b0c2b3006f
:1026400080cf540005003200d0c2b3008000eb0000
:1026500080cf540005003a00020037008000eb00f4
:1026600001003700110020000804e8000000eb0022
:1026700003003700ea00b900020050000003b00078
:102680003801fb0003fd2f0082814100e98f5100da
:10269000f8ff36000100e00001003a000000ea0007
:1026a0004f0578004f04be0000000600889fbe0062
:1026b0008a1f7800800478000105780009007800fe
:1026c00044000700000478008a01780008017800bf
:1026d00011002000090078000a000700800078003f
:1026e0000080eb00888f500001003a000000eb00f2
:1026f0004f0578004f04be0000000600100078006f
:1027000018fa3700889fbe008a1f7800810478007d
:102710000204780089c5b9000900e00001003a0010
:102720000004eb000a0178008000780003007800c4
:10273000d8fc0700800078008a8f50000300320028
:10274000050009008980d80000047800080078009e
:102750004f0578004f04be0000000600a0fd2f00ca
:10276000f1ff2f00330007004f89de00820178005f
:10277000000006000200fa0081017800e0ff9f00df
:10278000930090000188a30005003200d300900060
:10279000805878000080fb00d10198000a003700c3
:1027a000120020008f80e90003007800b9fc0700c8
:1027b000800078000080eb000100e00002003200a1
:1027c000eff897000180fb000080fa00000006008f
:1027d000e8ff370080007800040037003104e00093
:1027e00002003a00000051000000060001017800dc
:1027f0000108a300f9ff3a00810178003101780057
:10280000f4ef2f00020242000281ea00020162009e
:102810000408280004016100f7ff320083007800fb
:10282000010178003104e000fdff3a000000510092
:102830000000060002002f00f3ff2f00820f50005f
:10284000838f5800040036000000ea00b0a688001c
:102850000080eb008080eb0000000600f1fb2f0001
:1028600080804000f98f500001003e000050a00021
:1028700000000600f9ff3700f1f92f0080804000ca
:10288000f98f500001003e00f005b2000000060084
:10289000f9ff37000000060079fa0700fdff070086
:1028a000fcff3700881f7800000478000008200033
:1028b000808f50001700350010082000808f5000d6
:1028c0000b00340030082000808f500011003a00c7
:1028d0009200780068805000000978003002be0045
:1028e0002003be00049cbe000694be000700370013
:1028f0009202780064805200000978001000be0047
:1029000009000700009cbe000294be0010002000d9
:10291000010037000000eb004f04780000000600c3
:1029200000c0da0000000600810378001d000700e7
:102930000001be006000b8000478a30013003a0054
:102940006220e10015003e000d0039008301d10036
:102950000281d3008180d3008301d1000281d300a2
:102960008180d3008301d1000281d3008180d30014
:102970000538b000c42add00f300b2008381720084
:1029800007f0a70003f0a0000000060083ff270067
:10299000020020006110b900f9ff370003ff270093
:1029a000f7ff3700c70ade00f107b200f50fb200eb
:1029b00008003200e1cf4200020032000170a000a6
:1029c00024000500810f700001003200040805009a
:1029d00044000500810f700002003a001400050059
:1029e0008502e9000000400081c04800fcff3b0078
:1029f0000170a00024000500020ab900001bb90004
:102a00000200b8008100420081004300000006007f
:102a1000889fbe008a9fbe0030044200b0844a00f6
:102a200030054b0090854b006000b1000898be0057
:102a30000a90be000440e10005c8e10006d0e100b4
:102a400007d8e10002003100680040001008e800eb
:102a50004f05be004f04be0000000600889fbe0068
:102a60008a9fbe003004be002005be00041854003a
:102a700005985c0006185d0007985d0011002000b5
:102a80000440e10005c8e10006d0e10007d8e100fc
:102a9000010039008000eb00108810004f05be00d7
:102aa0004f04be00000006001200fa00889fbe001e
:102ab0008a9fbe008c9fbe00e0b79f00f1b79f00c9
:102ac00082bf9f0093bf9f000605be000404be00a6
:102ad0000000eb00d0b79f00c0b79f00b0b79f00c9
:102ae000a0b79f0090b79f00000678005fb19700e5
:102af000cfb09700820141003fb097000200e00094
:102b000004003d00370007007e805700c0ff07002b
:102b100003003700330007007e805700cfff070017
:102b2000dfb697000d00e0000c0035006fb2970093
:102b3000ffb297000fbb97009fbb970010002000cb
:102b4000010020006011b800000272008182720052
:102b500002037300838373001b0007000c06e80068
:102b600001042000810f5600e0ff3a000d00e00054
:102b700004003d000802be000a03be007e8057002c
:102b8000a3ff07005fa897000000e00005003a00df
:102b90001fb29700afb297003fb39700cfb3970033
:102ba000090007006fb09700ffb097000fb99700ba
:102bb0009fb997004f06be004f05be004f04be00f0
:102bc0000080fa0000000600010007000000060077
:102bd000a4b79f00b5b79f00c6b79f00d7b79f00a7
:102be000000006004f09de0082817100b3b79f002c
:102bf0004f01de008180400082807000a1b79f00fd
:102c00008fb097004f09de00000040000200700006
:102c100090b79f007fa897004f01de0081804000a1
:102c20008280700081b79f000d0007004f3ade00e0
:102c30000000400004007000f0af9f000800070093
:102c40000402420085824a0006034b0087834b0042
:102c5000dfff07000802be000a03be0000000600f6
:102c60002fb29700bfb297004fb39700dfb3970022
:102c700000000600881f780018002000881f7800d8
:102c800089ff07008f87e9004f04780000000600e5
:102c9000801feb0084ff07008f87e900000006001b
:102ca000889fbe008a9fbe00e00f5000e08f580052
:102cb000e00f5900e08f59000c003d006044b8005f
:102cc0006055b8000000540081805c0002015d0086
:102cd00083815d00180020001500070008003d00fa
:102ce000180007000004eb00050037000004eb00ab
:102cf0000f00070002003d0012000700180020002e
:102d0000dcff07000800e000060032006022b80087
:102d10006033b8000000520081805a0002015b005d
:102d200083815b004f05be004f04be00000006001b
:102d3000e00f5200e08f5a00e00f5b00e08f5b0075
:102d4000000006006044b8006055b800040254005a
:102d500085825c0006035d0087835d00000006003d
:102d6000889fbe008a9fbe008c1f7800e00f500035
:102d7000e08f5800e00f5900e08f59000d003d0032
:102d80006044b8006055b8000000540081805c00c9
:102d900002015d0083815d001c0020000820e1002d
:102da00009a8e1000ab0e1000bb8e1000d003d0008
:102db000080037000006eb00e00f5200e08f5a00d9
:102dc000e00f5b00e08f5b0006003d006044b80050
:102dd0006055b8000402540085825c0006035d0063
:102de00087835d00aaff07000c00e00006003200a8
:102df0006022b8006033b8000000520081805a00a1
:102e000002015b0083815b004f0678004f05be0026
:082e10004f04be0000000600a3
:020000040000fa
:102e18000d0000002a2a00002a2a00002a2a0000a1
:102e28002a2a00002a2a00002a2a00002a2a00004a
:102e38002a2a00002a2a00002a2a00002a2a00003a
:102e48002a2a00002a2a00002a2a00002a2a00002a
:102e58002a2a00002a2a00002a2a00002a2a00001a
:102e68002a2a00002a2a00002a2a00002a2a00000a
:102e78002a2a00002a2a00002a2a00002a2a0000fa
:102e88002a0d000000640000735000004943000050
:102e980033330000434b00002043000075720000ec
:102ea800696f000073690000747900002043000016
:102eb800414e0000203200002e3000002044000067
:102ec800656d00006f0d0000002a0000204300001f
:102ed800414e00002d3200002e300000206300001b
:102ee8006f6d00006d7500006e6900006361000081
:102ef800746900006f6e000020750000736900009f
:102f08006e6700002074000068650000206f0000f4
:102f18006e2d000063680000697000002043000007
:102f2800414e0000207000006572000069700000ca
:102f380068650000726100006c200000696e000086
:102f48002064000073500000494300003333000040
:102f5800434b000032350000364d0000503500006c
:102f6800303800000d0000002a2000004c6f0000df
:102f78006f70000062610000636b00002043000076
:102f8800414e0000206400006174000061200000d0
:102f980066720000616d000065200000696600002f
:102fa8002072000065630000656900007665000016
:102fb80064200000206d000065730000736100004c
:102fc8006765000020490000442000006973000084
:102fd8002030000078360000342000006f720000b6
:102fe80020300000783600003520000066720000ae
:102ff8006f6d00002074000068650000206200000a
:10300800757300000d0000002a20000047720000c0
:10301800656500006e2000004c450000442000005b
:10302800776900006c6c0000206200006c69000089
:103038006e6b0000206900006620000064610000db
:1030480074610000206d000065730000736100006a
:1030580067650000202000007769000074680000a0
:103068002030000078360000342000006f72000025
:103078002030000078360000352000006973000019
:103088002072000065630000656900007665000035
:1030980064200000616e0000640d00000a2000003a
:1030a80074720000616e0000736d000069740000a6
:1030b800746500006420000062610000636b00001a
:1030c80020730000756300006365000073730000df
:1030d800667500006c6c0000790d00000a0d000098
:1030e800003000007825000058200000002d000066
:1030f8002d2d00002d2d00002d2d00002d2d000060
:103108002d2d00002d2d00002d2d00002d2d00004f
:103118002d2d00002d2d00002d2d00002d2d00003f
:103128002d2d00002d2d00002d2d00002d2d00002f
:103138002d2d00002d2d00002d2d00002d2d00001f
:103148002d2d00002d2d00002d2d00002d2d00000f
:103158002d2d00002d2d00002d2d00002d2d0000ff
:103168002d2d00002d2d00002d2d00002d2d0000ef
:103178002d0d0000005b00002a5d0000204d0000be
:103188007367000020490000443a00002030000026
:10319800782500006c5800000d0a0000005b000054
:1031a8002a5d0000204d00007367000020440000e5
:1031b80061740000613a0000005b00002a5d0000b5
:1031c800204400004c4300003a2000003078000002
:1031d800255800000d0a000000430000414e000081
:1031e8005f460000524100004d4500005f5300005b
:1031f8005444000000430000414e00005f460000b8
:10320800524100004d4500005f4500005854000041
:10321800005b00002a5d00002049000064540000a3
:1032280079700000653a000020250000730d000049
:103238000a000000434100004e5f000046520000b3
:10324800414d0000455f000044410000544100002a
:1032580000430000414e00005f460000524100005c
:103268004d4500005f52000054520000005b000012
:103278002a5d000020460000726100006d650000b4
:1032880054790000706500003a20000025730000a2
:103298000d0a000000430000414e00005f320000ac
:1032a8005f3000005f4600004f5200004d410000b3
:1032b80054000000434100004e5f000046440000f7
:1032c8005f4600004f5200004d41000054000000ce
:1032d8005b2a00005d200000466f0000726d000050
:1032e800617400006554000079700000653a0000c0
:1032f80020250000730d00000a00000055aa0000f8
:1033080055aa000055aa000055aa000000010000b7
:10331800020300000405000006070000080c000076
:103328001014000018200000304000000a1e0000a1
:103338003a1e0000841e0000e21e00005c2200000d
:10334800ac2100002a200000a62000001022000066
:103358002822000040220000f01e0000961f0000f6
:10336800c4210000dc210000f4210000c42000007a
:103378008e2100006a220000822200009a220000aa
:10338800b2220000ca220000e2220000fa22000055
:103398000000000069200000616d00002068000046
:1033a80065720000650d00000000000001020000c9
:1033b80003040000050600000708000012230000af
:1033c8007223000098230000c2230000ee230000af
:1033d8000424000036240000662400006e24000047
:1033e8000000000000000000762400009c2400007b
:1033f800b4240000cc240000e2240000fe240000d5
:1034080060250000d0250000de250000f62500001c
:103418000e260000262600003e2600005626000044
:020000040000fa
:103428000200fa00000f7800909d29001e0040005d
:10343800104078000080fa00000006000400fa003e
:10344800004f7800110798001e80fb000000e00084
:1034580003003200e10f50000b0032001400370067
:103468001e00900081612000110098001e0090004d
:1034780081c0b300014878001e00900001c2b3006b
:1034880011409800140037001e009000416220008f
:10349800110098001e00900081c0b3000148780018
:1034a8001e00900001c2b300114098000a003700c6
:1034b8001e0090008000eb00110098001e00900094
:1034c8008040eb00014878001e0090008040eb002f
:1034d80011409800000000000080fa00000006007b
:1034e8000200fa000040eb00004f780007003700a8
:1034f8001e80fb00c200dd000003210000804000a8
:103508008040eb00014878001e4fe8001e4078001c
:103518000004e000f6ff32000080fa000000060018
:103528000400fa00204798007081800080407800ed
:103538002e40900080cf500003003a000040eb007e
:10354800004f78000d0037000040eb00004f780076
:10355800010037001e4fe8001e80fb00c200dd009e
:10356800e0022100008040001000780080407800d0
:103578002e40900080cf5000f6ff3a001e407800a1
:103588000080fa00000006000200fa00000f780030
:103598001e007800e10f500003003a002066a900e1
:1035a8000000000001003700000000000080fa0061
:1035b800000006000200fa00004f78001e80fb00a1
:1035c800e10f500003003a001d06a80000000000ab
:1035d80001003700000000000080fa00000006002b
:1035e8000400fa00100798001e009000e10f500038
:1035f80006003a0000318000c8800a000000000080
:103608000080fb00000f7800030037000000eb008b
:10361800000f7800000000001e0078000080fa000b
:10362800000006000200fa00000f78001e00780073
:103638000000e00006003a008130800000302000e1
:103648000100700080308800000000000100370091
:10365800000000000080fa00000006000a00fa00de
:10366800889fbe008a9fbe003007980041079800d7
:103678000040eb00004f78003e009000900078007a
:10368800110798003e0090000080e8009000780044
:10369800210798003e009000640040001000780068
:1036a800004078006f4060006f4060006f4060002d
:1036b800ce0090000080fb006f0060004200dd003b
:1036c800a10590003afc2f000a8565000a007000e9
:1036d800a00098003e0090006400400010007800b0
:1036e800700060004400de0000407800e1406000a7
:1036f8004e0090008180fb00e18060002005900072
:103708000a00a1008a807000210098003e00900005
:1037180064004000900078000002200000806000f3
:103728004500de0000407800e14060004e00900057
:103738008180fb00e18060008180400020059000ce
:103748000a10a1008a807000210098003e009000b5
:1037580064004000900078000004200000806000b1
:103768004600de0000407800e14060004e00900016
:103778008180fb00e1806000c708dd002005900023
:103788000a70a1008a807000210098003e00900015
:10379800640040009000780000082000008060006d
:1037a8004700de0000407800e14060004e009000d5
:1037b8008180fb00e1806000c608dd0020059000e4
:1037c8000a60a1008a807000210098004e009000d5
:1037d80020009000610060000000e00010003a0046
:1037e8001e0090006101b800f07f20000100200059
:1037f80002027800030178008001780081007800d7
:1038080003006200810061008104780000047800f0
:103818000800be004e0190000089be002d00370050
:103828001e0090006104b800f07f20000100200015
:103838000805780009047800800478008100780081
:1038480009006500810064008103780000037800a6
:103858000600be00c204dd00080020002e00900013
:103868006103b800f0ff2100010020000605780080
:10387800070378008003780081007800070065005e
:103888008100630081027800000278004528dd008d
:10389800cb20de00810070004520dd0000027400ae
:1038a800818274001e0090004b00de008000eb0057
:1038b800000078007f0060008001eb0000017800c4
:1038c8000200be0000007200818072004e0190006c
:1038d8000089be004e0090002000900052800a002f
:1038e800000000000080fb00cdfe0700004f7800bc
:1038f800820020008000eb00e04c2100eaf5070080
:103908009e80fb003e0090006800400001017800a6
:1039180080007800e04c2100dcf507004e009000a4
:10392800e14c2100310098004f05be004f04be0055
:103938000080fa00000006000600fa001007980050
:10394800210798000040eb00004f78002e009000ff
:1039580020009000610060000000e00008003a00cc
:103968002e0090001000be0080007800f07f20003c
:10397800808060001e009000010878001900370060
:103988002e0090001000be004208de008000780083
:10399800f07f2000008160002e0090001000be0023
:1039a800000078004b00dd00820070001e009000cf
:1039b800010878001e0090000081e8002e009000a9
:1039c8001000be00cb09dd004500de00008071005c
:1039d800c508de0080007800f0ff2100008060004c
:1039e800000978001e00900064004000ae009000be
:1039f800a100900052810a00010000000181fb0033
:103a0800ae009000a100900000810a0001000000b3
:103a18008180fb00c408dd00f08060000281700036
:103a2800ae009000a100900011810a000100000082
:103a38008180fb00c508dd008101780001022000bb
:103a48008180610002817000ae009000a1009000aa
:103a580077810a00010000008180fb00c608dd00b4
:103a680081017800010420008180610002817000da
:103a7800ae009000a100900066810a0001000000dd
:103a88008180fb00c708dd0081017800f10f20006c
:103a98008180610082807000010878002e0090000b
:103aa80020009000620060000000e0000e003a0074
:103ab8002e0090002000900052800a0000000000b4
:103ac8000080fb0056fe0700004f78001e81fb00b7
:103ad8002e009000b00090001e009000680040008a
:103ae8006af50700070037001e00900064004000d8
:103af8009e009000e4804000910078000150a000f2
:103b0800010878000080fa00000006000000fa00b2
:103b180000f421009030880000492000803088009f
:103b28000080fa00000006000000fa0000f0210002
:103b3800f030880080402000e03088000080fa00e3
:103b4800000006000000fa008133800000fe2f000c
:103b5800008060000000a000803388000000220080
:103b6800003488003000200010348800a0792f002d
:103b780020348800f0ff21003034880070e6a80067
:103b88000080fa00000006000000fa00e0002000b3
:103b9800302e880030302000202e88000080fa0067
:103ba800000006000000fa00c027220047020700b4
:103bb8004029220051020700c02a22005b020700a8
:103bc800402c220065020700c02d22006f0207006a
:103bd800402f220079020700c0302200830207002c
:103be8000328a90003e8a900dc25ef00a0c02f00e6
:103bf800f02e88001c06a800de25a80023e8a800ef
:103c08002328a8000080fa00000006000000fa003f
:103c1800c1e5a80000492000102e880040002000bf
:103c2800370007000000e0000e003a00c003210042
:103c38006030880000762900002e8800c265a9003f
:103c4800c285a800d0ff0700b0ff0700b6ff070035
:103c5800bcff0700d3ff070021fe0700600020001b
:103c6800270007000080fa00000006000000fa00a4
:103c780040002000220007000000e0001d003a007c
:103c880000762000002e880080492000102e880031
:103c9800e0032000302e8800f0f02000202e88005d
:103ca80000062000903088000048200080308800fe
:103cb80000062000f030880000402000e030880036
:103cc8008133800000fe2f00008060008033880070
:103cd8008026ef008226ef008426ef008626ef007c
:103ce80070e6a9000328a900dc25ef00de25ef0017
:103cf8002328a900c1e5a9000080fa0000000600f9
:103d08000400fa00100798000000eb00000f78008c
:103d18002a000700e40f5000060032001e00900041
:103d2800e10f5000030032001e009000e40f500025
:103d38001d003a001e0090000040780067406000b7
:103d48000080fb00670060004800dd00122e800044
:103d5800f18f2f008100610001007000102e880093
:103d680009003700e12e800000002100008060007b
:103d78000000e0000400320020002000000f78005e
:103d8800000000000a003700102e800075800a002d
:103d9800000000008080fb001e009000808f500013
:103da800f0ff3a000200370010002000000f7800f2
:103db8001e0078000080fa00000006000000fa00eb
:103dc800102e800075800a00000000000080fb00b3
:103dd8000080fa00000006000a00fa004007980078
:103de8000040eb00104798000040eb00004f7800bf
:103df800440037001e80fb00c200dd00e002210005
:103e080000804000100078002047980064004700b8
:103e1800800078002e40900088fd07002e4090001a
:103e28000080fb003b010700304798003e409000af
:103e38000080fb0061006000004078000004e000a2
:103e48002f0032003e009000100078000000e000d3
:103e5800300032003e00900010007800ce00900044
:103e6800fefd07002e409000d2fd07001e80fb00db
:103e7800c200dd000181e800e1022100810041006b
:103e8800914078008140e8004201dd0000032100f4
:103e980000004100014878001e80fb004200dd0060
:103ea8008080e800e0022100008040009040780017
:103eb8005e40900080cf5000060039001e80fb0055
:103ec800c200dd0000032100008040008040eb00bc
:103ed800014878003e4090000080fb0068006000c8
:103ee8000000e000030032002e4090000080fb003c
:103ef800a5fd070010c0b300104798000600370062
:103f08001e4fe8001e4078000004e000b9ff3200b0
:103f180001003700000000001e4090000080fa00f9
:103f2800000006000c00fa004007980051079800ae
:103f38000040eb00004f7800e40047004e0090007e
:103f4800004078003dfd07004e009000f10007009a
:103f5800104798004e0090000040780070fd070060
:103f6800204798001e4090000080fb006100600020
:103f7800004078000004e000310032003e0090006c
:103f8800100078000000e0002d0032003e00900094
:103f980010007800de009000b0fd07004e00900091
:103fa8000040780083fd07002e4090000080fb0051
:103fb800c200dd000181e800e1022100810041002a
:103fc800914078008140e8004201dd0000032100b3
:103fd80000004100014878002e4090000080fb005e
:103fe8004200dd008080e800e002210000804000ff
:103ff800904078005e40900080cf50000700390064
:104008002e4090000080fb00c200dd00000321006c
:10401800008040008040eb00014878001e4090007e
:104028000080fb00680060000000e0000200320031
:104038004e00900054fd070010c0b300004f7800f8
:104048001e4078000080fa00000006000a00fa000e
:1040580030079800410798003e0090000040780023
:104068008e80e800f5fc07000000eb00000f7800e8
:104078004e009000a0009000000820000080600022
:104088000000e00006003200012e80000000210040
:10409800008060000000e000010032001e10a00057
:1040a8004e0090002000900052800a00000000009e
:1040b8000080fb00e80f5000010034001e00a00043
:1040c8004e0090002000900052800a00000000007e
:1040d8000080fb00d2fc0700ae409000814f5000ea
:1040e800010036001e00a0001e0078000000e0005d
:1040f80011003a003e00900012000700e10f500046
:104108000b003a002e009000100078000000e0003c
:10411800090032002e00900010007800ce009000b8
:1041280005fe07003e0090003efd07000200370034
:104138009e007800638f70001e0078000080fa00ef
:10414800000006000400fa00100798001e00900006
:104158000000e00004003a00a03080006100600028
:10416800000f7800030037000000eb00000f780014
:10417800000000001e0078000080fa000000060021
:104188000c00fa000040eb00304798000040eb00bc
:10419800004f78000040eb00104798000040eb000b
:1041a800204798000040eb00004f7800530037008c
:1041b8001e80fb00c200dd00e002210000804000fc
:1041c80010007800304798006800470080007800a9
:1041d8003e40900099fc07003e4090000080fb00a4
:1041e8004c000700404798004e4090000080fb00bc
:1041f80061006000004078000004e0003e003200ea
:104208004e4090000080fb00680060000000e00065
:10421800030032009e489000114798003200370092
:104228003e4090000080fb00edfc0700300798003e
:104238001e80fb004200dd008080e800e0022100d3
:1042480000804000104078008080fb003e00900015
:10425800808f50000d0036009e4890003e00900070
:104268000040780080c040001e80fb004200dd0056
:104278000081e800e00221000000410010407800c1
:1042880000c0500010479800170037001e80fb0040
:104298004200dd008080e800e0022100008040004c
:1042a800104078008080fb003e009000808f500016
:1042b8000b0031003e009000804078001e80fb001b
:1042c8004200dd000081e800e0022100000041001a
:1042d8001040780000c050001047980002003700d6
:1042e8009e48900011479800ae4090001e409000f4
:1042f80000c04000204798001e4fe8001e4078008c
:104308000004e000aaff32002e4090000080fa006e
:10431800000006000400fa00100798001e00900034
:10432800e10f500004003a0000318000004078009e
:10433800694f6000030037000040eb00004f780031
:10434800000000001e4078000080fa00000006000f
:104358000000fa00b02f800055800a00000000001d
:104368000080fb0000f0a7000000ea000000ea005f
:104378004f00de00004078000080fa0000000600d0
:104388000000fa00b02f800033800a00000000000f
:104398000080fb0000f0a7000000ea000000ea002f
:1043a8004f00de00004078000080fa0000000600a0
:1043b8000000fa00b02f800011800a000000000001
:1043c8000080fb0000f0a7000000ea000000ea00ff
:1043d8004f00de00004078000080fa000000060070
:1043e8000200fa000040eb00004f7800f4c5bf005f
:1043f8000004e00005003200f4c5bf000004e0003e
:104408000200350010c0b300004f78001e4078004d
:104418000080fa00000006000000fa00b02f8000bb
:1044280044800a00000000000080fb0000f0a700a4
:104438000000ea000000ea004f00de0000407800bb
:104448000080fa00000006000000fa00b02f80008b
:1044580022800a00000000000080fb0000f0a70096
:104468000000ea000000ea004f00de00004078008b
:104478000080fa00000006000200fa000040eb008d
:10448800004f7800f5c5bf000004e00005003200c9
:10449800f5c5bf000004e0000200350010c0b300fd
:1044a800004f78001e4078000080fa0000000600e7
:1044b8000000fa00ddc5a900dfc5a8001000200033
:1044c8000ffe07000080fa00000006000200fa0054
:1044d800000f78001e0078000000e00002003200a3
:1044e8009e007800c18088000080fa000000060065
:1044f8000000fa000080fa00000006000200fa003e
:10450800000f78001e0078000000e0000200320072
:104518009e007800d18088000080fa000000060024
:104528000000fa000080fa00000006000200fa000d
:10453800000f78001e0078000000e0000200320042
:104548009e007800e18088000080fa0000000600e4
:104558000000fa000080fa00000006000200fa00dd
:10456800000f78001e0078000000e0000200320012
:104578009e007800f18088000080fa0000000600a4
:104588000000fa000080fa00000006000200fa00ad
:10459800000f78001e0078000000e00002003200e2
:1045a8009e007800018188000080fa000000060063
:1045b8000000fa000080fa00000006000200fa007d
:1045c800000f78001e0078000000e00002003200b2
:1045d8009e007800118188000080fa000000060023
:1045e8000000fa000080fa00000006000200fa004d
:1045f800000f78001e0078000000e0000200320082
:104608009e007800218188000080fa0000000600e2
:104618000000fa000080fa00000006000000fa001e
:104628002188a9002168a90037a8a9003822ef002d
:1046380000802000d011880000082000e0118800c8
:10464800e0022000f01188003002200000128800eb
:104658004222ef00c04b210040808800c04b21005f
:1046680030808800504c210020808800504c210068
:10467800108088000a70ef00005f22004d010700db
:1046880080602200570107000062220061010700d4
:10469800806322006b010700006522007501070096
:1046a800806622007f0107003d62a8003dc2a80085
:1046b8003d22a8003d02a8003da2a8002168a8004c
:1046c80037a8a8002628a80039e2a80038a2a80020
:1046d8003882a8000080fa00000006000000fa00f6
:1046e8000188a9002188a9000168a9002168a900fa
:1046f80017a8a90037a8a9000628a9002628a900f4
:104708003822ef003a22ef0000082000e01188006c
:10471800e0022000f01188004022ef004222ef0062
:104728000080fa00000006000200fa000040eb00da
:10473800004f78002180800010808000808f50001a
:104748000b00320020808000104f7800208080000d
:104758000000e8002080880021808000e04c2100d3
:10476800808f500002003a00504c210020808800c1
:104778001e4078000080fa00000006000200fa00df
:10478800004f7800000000001d0007000004a20090
:104798000004e000fcff3a00308080001e487800ea
:1047a800308080000000e800308088003180800080
:1047b800504c2100808f500002003a00c04b21006d
:1047c800308088002188a8003870ef000080fa0047
:1047d800000006000000fa002180800010808000a0
:1047e8000080680000f0a7000000ea000000ea006e
:1047f8004f00de00004078000080fa00000006004c
:104808000400fa0041808000110798003180800080
:104818001e009000808f5000060031009e0090001e
:1048280030808000008050000000e900000f780010
:10483800040037009e009000308080000080500007
:10484800680f40001e00780000f0a7000000ea0092
:104858000000ea004f00de00004078000080fa0007
:10486800000006000200fa000040eb00004f78004c
:104878003180800040808000808f50000e003a0018
:10488800e111800000082000008060000000e000c6
:1048980007003200f1118000000220000080600053
:1048a8000000e00002003200100020000100370084
:1048b8000000eb00004f78001e4078000080fa00ee
:1048c800000006000000fa0038a2a8000080fa00e4
:1048d800000006000000fa0038a2a9000080fa00d3
:1048e800000006000200fa00004f78005cc2a90030
:1048f8001e80fb00610060004200dd00e1128000c4
:104908000120a10001007000e01288001e80fb0059
:10491800610060004600dd00c11180000160a10057
:1049280001007000c01188000080fa000000060035
:104938000000fa00c011800066800a000000000034
:104948000080fb0000f0a7000000ea000000ea0079
:104958004f00de00004078000080fa0000000600ea
:104968000000fa00e012800022800a000000000027
:104978000080fb0000f0a7000000ea000000ea0049
:104988004f00de00004078000080fa0000000600ba
:104998000400fa00008fbe001e0078000012880094
:1049a8001e00be004008de00000078006f006000b6
:1049b800101288000080fa00000006000400fa00c7
:1049c800101280008000eb00008fbe001e00be00a9
:1049d800c001dd0002002000001280008000eb0012
:1049e800001f7100019771001e00be000080fa00d0
:1049f800000006000800fa00200798003107980018
:104a08002e019000be01900030002000010020001f
:104a1800800f5100818f59000e0036002e00900043
:104a2800be009000e00f5000e08f580009003200ef
:104a38003b62a80038e2a9002e019000be01900058
:104a480000902000d103200062f10700008fbe0013
:104a5800100037003b62a90038e2a8002e01900040
:104a6800be0190004218dd00ce10de00810070000b
:104a78004210dd000001be0000902000d10320009c
:104a880054f107000081eb008081eb00021f400019
:104a9800039748001e007800001288001e00be0020
:104aa8004008de00000078006f00600010128800e7
:104ab8000080fa00000006000800fa00bfff0700a7
:104ac8002007980031079800d1118000008020004d
:104ad800008060000000e0000c0032002e00900012
:104ae800be009000e00f5000e08f58000700320031
:104af8002e019000be01900000902000d1032000fc
:104b080034f10700008fbe0020003700c11180007b
:104b180000082000008060000000e0000e00320065
:104b28002e009000be00900061014000e081480026
:104b38004218dd00ce10de00810070004210dd005a
:104b48000001be0000902000d103200021f10700e1
:104b5800008fbe000d0037002e009000be009000b0
:104b680061014000e08148004418dd00cc10de00ff
:104b7800810070004410dd000001be00009020009c
:104b8800d103200013f10700008fbe001e00be00f5
:104b98000080fa00000006000200fa000180800090
:104ba800010f78000030ef001e0078000080fa0046
:104bb800000006000200fa00000f78001e007800ce
:104bc8000000e000020032009e007800618088004a
:104bd8000080fa00000006000000fa000080fa00d9
:104be800000006000200fa00000f78001e0078009e
:104bf8000000e000020032009e007800718088000a
:104c08000080fa00000006000000fa000080fa00a8
:104c1800000006000200fa00000f78001e0078006d
:104c28000000e000020032009e00780081808800c9
:104c38000080fa00000006000000fa000080fa0078
:104c4800000006000200fa00000f78001e0078003d
:104c58000000e000020032009e0078009180880089
:104c68000080fa00000006000000fa000080fa0048
:104c7800000006000200fa00000f78001e0078000d
:104c88000000e000020032009e007800a180880049
:104c98000080fa00000006000000fa000080fa0018
:104ca800000006000200fa00000f78001e007800dd
:104cb8000000e000020032009e007800b180880009
:104cc8000080fa00000006000000fa000080fa00e8
:104cd800000006000000fa00c070290056f1070025
:104ce800e070290054f107007074290052f10700a0
:104cf800e070290050f10700907629004ef1070076
:104d0800807b29004cf10700808029004af10700c8
:104d18000080fa00000006000200fa00000f780088
:104d2800a09829001e004000104078000080fa007a
:104d3800000006000400fa00100798000040eb008d
:104d4800004f78000040eb00004f78000c0037005f
:104d58001e009000b00090001e80fb000080400004
:104d6800104078000080fb00801f780050872900e1
:104d7800801f7800b6f00700e48757001e4fe80050
:104d88001e0090002000900052800a0000000000e1
:104d98000080fb00e0ff07009e4f5000ecff3e0044
:104da800c070290024f107000080fa000000060006
:104db8000200fa00000f7800b08729001ef10700f2
:104dc8001e0078001000be00809fbe00f08b2900f6
:104dd800801f78008ff00700e6875700308d290084
:104de800801f78008bf007008f87e9001e0078008d
:104df800d0ff07001e0078002000900052800a00b3
:104e0800000000000080fb00c3ff07000080fb00db
:104e1800801f7800108e2900801f78007df0070021
:104e2800e48757001e0078002000900061006000b1
:104e38000000e00002003a00108f2900010037004e
:104e4800f08f2900801f7800d0902900801f7800fb
:104e580070f00700e48757001e00780020009000db
:104e6800620060000000e00002003a00e0912900c2
:104e780001003700d0922900801f7800b0932900e4
:104e8800801f780063f00700e48757001e00780051
:104e9800a000900000042000008060000000e000f6
:104ea80002003a00f094290001003700e09529003b
:104eb800801f7800c0962900801f780055f00700f1
:104ec800e4875700b0872900dbf007000080fa006c
:104ed800000006001800fa0069020700c3e8a800ed
:104ee80000000000000000007aff07002198290058
:104ef80007000900315f78008e00b10050052000de
:104f08000100200040079800510798006e009000ab
:104f18000000a10060079800ee00900030fc2f0010
:104f2800008060000050a000600798006e009000ac
:104f38000010a100600798006e0090000070a100aa
:104f4800600798006e0090000060a100600798005c
:104f58007e07980001003700000000003ad0bf002b
:104f68000004e000fcff3200700047009afb0700d5
:104f78000004e00002003200700047008cff0700c8
:104f8800de25a80023e8a8001c06a800f3ff3700c8
:104f98000400fa00100798000040eb00004f78006a
:104fa8001e0090000000e00002003d0010c0b300a9
:104fb800004f78001e4078000080fa0000000600cc
:104fc8000400fa00100798000040eb00004f78003a
:104fd8009e00900000002400008060000000e000b7
:104fe8000200320010c0b300004f78001e40780065
:104ff8000080fa00000006000400fa00100798007c
:105008000040eb00004f78009e0090000020200038
:10501800008060000000e0000200320010c0b30011
:10502800004f78001e4078000080fa00000006005b
:105038000400fa00100798000040eb00004f7800c9
:105048009e00900000082000008060000000e00042
:105058000200320010c0b300004f78001e407800f4
:105068000080fa00000006000400fa00100798000b
:105078000040eb00004f78009e00900000042000e4
:10508800008060000000e0000200320010c0b300a1
:10509800004f78001e4078000080fa0000000600eb
:1050a8000400fa00100798000040eb00004f780059
:1050b8001e009000700060000000e0000200320056
:1050c80010c0b300004f78001e4078000080fa003e
:1050d800000006000200fa00000f78009e80ea0037
:1050e800007c800000806000007c88000080fa005e
:1050f800000006000000fa00007c80000080fa0032
:10510800000006000200fa00faff0700000f78000e
:105118001e0078009eff07000004e0000200320035
:1051280000002800ebff07001e007800a4ff07001e
:105138000004e0000200320000002400e5ff070040
:105148001e007800acff07000004e00002003200f7
:1051580000202000dfff07001e007800b4ff0700d2
:105168000004e0000200320000082000d9ff070018
:105178001e007800bcff07000004e00002003200b7
:1051880000042000d3ff07001e007800c4ff0700ba
:105198000004e0000200320000012000cdff0700fb
:1051a8000080fa00000006000000fa00802fef00df
:1051b8000080fa00000006000000fa00c3e8a8001a
:1051c80000000000000000000080fa000000060057
:1051d8000000fa00c3e8a900000000000000000079
:1051e8000080fa00000006000000fa00f8ff07003f
:1051f8008e010700f0ff0700809d22006100070074
:1052080025a8a8000080fa00000006000000fa00a7
:1052180000002800e00288000080fa000000060074
:105228000000fa00000024000003880010c0b3004a
:1052380026f0b7000080fa00000006000000fa001f
:105248002670ef000000000040038000610060004d
:105258000000e000fcff32008000200020038800ee
:105268000080fa00000006000200fa000040eb008f
:10527800004f780040038000610060000040780023
:105288000004e0000200320010c0b300004f7800b4
:105298001e4078000080fa00000006000000fa00b6
:1052a80026d0bf000080fa00000006000400fa00c3
:1052b8006000b800008fbe00b00380008000eb00e3
:1052c800c000dd0000002000008fbe00a0038000a9
:1052d8008000eb003e017000ae8170000200be004d
:1052e8000080fa00000006000400fa006000b80020
:1052f800008fbe00d00380008000eb00c000dd00fe
:1053080000002000008fbe00c00380008000eb007a
:105318003e017000ae8170000200be000080fa00fd
:10532800000006000200fa000000eb00000f780001
:1053380041038000100e2000008f60001e007800de
:105348000080fa00000006000400fa006000b800bf
:10535800008fbe00700380008000eb00c000dd00fd
:1053680000002000008fbe00600380008000eb007a
:105378003e017000ae8170000200be000080fa009d
:10538800000006000200fa00000f78001e007800f6
:105398000000e000020032009e0078006181880071
:1053a8000080fa00000006000000fa000080fa0001
:0453b80000000600eb
:020000040000fa
:1053bc00ce14000008000000800000003c1000002b
:1053cc000004000080000000181000000e00000017
:1053dc00800000002e10000004000000820000007d
:1053ec00010000000000000032100000040000006a
:1053fc008000000026100000080000008000000063
:10540c007e14000020000000800000003610000018
:10541c000200000082000000ffff0000bc1400002e
:10542c001200000080000000381000000200000094
:10543c0082000000010000000010000018000000b5
